{
  "contractName": "MainContract",
  "abi": [
    {
      "inputs": [],
      "payable": false,
      "stateMutability": "nonpayable",
      "type": "constructor"
    },
    {
      "constant": false,
      "inputs": [
        {
          "name": "_newBidder",
          "type": "address[]"
        }
      ],
      "name": "approveBidder",
      "outputs": [],
      "payable": false,
      "stateMutability": "nonpayable",
      "type": "function"
    },
    {
      "constant": false,
      "inputs": [
        {
          "name": "_newAdmin",
          "type": "address[]"
        }
      ],
      "name": "approveAdmin",
      "outputs": [],
      "payable": false,
      "stateMutability": "nonpayable",
      "type": "function"
    },
    {
      "constant": true,
      "inputs": [
        {
          "name": "_node",
          "type": "address"
        }
      ],
      "name": "getUserType",
      "outputs": [
        {
          "name": "",
          "type": "uint8"
        }
      ],
      "payable": false,
      "stateMutability": "view",
      "type": "function"
    },
    {
      "constant": false,
      "inputs": [
        {
          "name": "_tenderID",
          "type": "uint256"
        },
        {
          "name": "_bidTime",
          "type": "uint256"
        },
        {
          "name": "_title",
          "type": "string"
        },
        {
          "name": "_desc",
          "type": "string"
        },
        {
          "name": "_item",
          "type": "string"
        },
        {
          "name": "_qty",
          "type": "uint256"
        }
      ],
      "name": "createTender",
      "outputs": [
        {
          "name": "",
          "type": "address"
        }
      ],
      "payable": false,
      "stateMutability": "nonpayable",
      "type": "function"
    },
    {
      "constant": true,
      "inputs": [
        {
          "name": "_tenderID",
          "type": "uint256"
        }
      ],
      "name": "getTenderByID",
      "outputs": [
        {
          "name": "",
          "type": "address"
        }
      ],
      "payable": false,
      "stateMutability": "view",
      "type": "function"
    },
    {
      "constant": true,
      "inputs": [],
      "name": "getAllTenders",
      "outputs": [
        {
          "name": "",
          "type": "address[]"
        }
      ],
      "payable": false,
      "stateMutability": "view",
      "type": "function"
    },
    {
      "constant": true,
      "inputs": [
        {
          "name": "_mode",
          "type": "uint256"
        }
      ],
      "name": "getTendersByStatus",
      "outputs": [
        {
          "name": "",
          "type": "address[]"
        }
      ],
      "payable": false,
      "stateMutability": "view",
      "type": "function"
    }
  ],
  "bytecode": "0x608060405234801561001057600080fd5b503360405161001e906100b6565b808273ffffffffffffffffffffffffffffffffffffffff1673ffffffffffffffffffffffffffffffffffffffff168152602001915050604051809103906000f080158015610070573d6000803e3d6000fd5b50600260006101000a81548173ffffffffffffffffffffffffffffffffffffffff021916908373ffffffffffffffffffffffffffffffffffffffff1602179055506100c3565b610322806133f983390190565b613327806100d26000396000f3fe60806040523480156200001157600080fd5b5060043610620000885760003560e01c80638b3f863f11620000635780638b3f863f14620001e9578063cf1c1bd6146200024a578063f25f7e0f14620002c9578063f9a1a89614620003485762000088565b80632358c046146200008d5780632dd0f78414620000f057806363d1961c1462000178575b600080fd5b62000097620004d5565b6040518080602001828103825283818151815260200191508051906020019060200280838360005b83811015620000dc578082015181840152602081019050620000bf565b505050509050019250505060405180910390f35b6200011f600480360360208110156200010857600080fd5b8101908080359060200190929190505050620005ca565b6040518080602001828103825283818151815260200191508051906020019060200280838360005b838110156200016457808201518184015260208101905062000147565b505050509050019250505060405180910390f35b620001a7600480360360208110156200019057600080fd5b8101908080359060200190929190505050620007aa565b604051808273ffffffffffffffffffffffffffffffffffffffff1673ffffffffffffffffffffffffffffffffffffffff16815260200191505060405180910390f35b6200022e600480360360208110156200020157600080fd5b81019080803573ffffffffffffffffffffffffffffffffffffffff169060200190929190505050620008bd565b604051808260ff1660ff16815260200191505060405180910390f35b620002c7600480360360208110156200026257600080fd5b81019080803590602001906401000000008111156200028057600080fd5b8201836020820111156200029357600080fd5b80359060200191846020830284011164010000000083111715620002b657600080fd5b9091929391929390505050620009a3565b005b6200034660048036036020811015620002e157600080fd5b8101908080359060200190640100000000811115620002ff57600080fd5b8201836020820111156200031257600080fd5b803590602001918460208302840111640100000000831117156200033557600080fd5b909192939192939050505062000bef565b005b62000493600480360360c08110156200036057600080fd5b810190808035906020019092919080359060200190929190803590602001906401000000008111156200039257600080fd5b820183602082011115620003a557600080fd5b80359060200191846001830284011164010000000083111715620003c857600080fd5b909192939192939080359060200190640100000000811115620003ea57600080fd5b820183602082011115620003fd57600080fd5b803590602001918460018302840111640100000000831117156200042057600080fd5b9091929391929390803590602001906401000000008111156200044257600080fd5b8201836020820111156200045557600080fd5b803590602001918460018302840111640100000000831117156200047857600080fd5b90919293919293908035906020019092919050505062000e3b565b604051808273ffffffffffffffffffffffffffffffffffffffff1673ffffffffffffffffffffffffffffffffffffffff16815260200191505060405180910390f35b6060806000805490506040519080825280602002602001820160405280156200050d5781602001602082028038833980820191505090505b50905060008090505b600080549050811015620005c257600160008083815481106200053557fe5b9060005260206000200154815260200190815260200160002060009054906101000a900473ffffffffffffffffffffffffffffffffffffffff168282815181106200057c57fe5b602002602001019073ffffffffffffffffffffffffffffffffffffffff16908173ffffffffffffffffffffffffffffffffffffffff168152505080600101905062000516565b508091505090565b606080600080549050604051908082528060200260200182016040528015620006025781602001602082028038833980820191505090505b509050600080905060008090505b6000805490508110156200079f57600185600160008085815481106200063257fe5b9060005260206000200154815260200190815260200160002060009054906101000a900473ffffffffffffffffffffffffffffffffffffffff1673ffffffffffffffffffffffffffffffffffffffff166322f3e2d46040518163ffffffff1660e01b815260040160206040518083038186803b158015620006b257600080fd5b505afa158015620006c7573d6000803e3d6000fd5b505050506040513d6020811015620006de57600080fd5b810190808051906020019092919050505060ff161814156200079357600160008083815481106200070b57fe5b9060005260206000200154815260200190815260200160002060009054906101000a900473ffffffffffffffffffffffffffffffffffffffff168383806001019450815181106200075857fe5b602002602001019073ffffffffffffffffffffffffffffffffffffffff16908173ffffffffffffffffffffffffffffffffffffffff16815250505b80600101905062000610565b508192505050919050565b60008073ffffffffffffffffffffffffffffffffffffffff166001600084815260200190815260200160002060009054906101000a900473ffffffffffffffffffffffffffffffffffffffff1673ffffffffffffffffffffffffffffffffffffffff16141562000882576040517f08c379a00000000000000000000000000000000000000000000000000000000081526004018080602001828103825260108152602001807f4e6f2054656e64657220466f756e64210000000000000000000000000000000081525060200191505060405180910390fd5b6001600083815260200190815260200160002060009054906101000a900473ffffffffffffffffffffffffffffffffffffffff169050919050565b6000600260009054906101000a900473ffffffffffffffffffffffffffffffffffffffff1673ffffffffffffffffffffffffffffffffffffffff16638b3f863f836040518263ffffffff1660e01b8152600401808273ffffffffffffffffffffffffffffffffffffffff1673ffffffffffffffffffffffffffffffffffffffff16815260200191505060206040518083038186803b1580156200095f57600080fd5b505afa15801562000974573d6000803e3d6000fd5b505050506040513d60208110156200098b57600080fd5b81019080805190602001909291905050509050919050565b60028060009054906101000a900473ffffffffffffffffffffffffffffffffffffffff1673ffffffffffffffffffffffffffffffffffffffff16638b3f863f336040518263ffffffff1660e01b8152600401808273ffffffffffffffffffffffffffffffffffffffff1673ffffffffffffffffffffffffffffffffffffffff16815260200191505060206040518083038186803b15801562000a4457600080fd5b505afa15801562000a59573d6000803e3d6000fd5b505050506040513d602081101562000a7057600080fd5b810190808051906020019092919050505060ff161462000adc576040517f08c379a0000000000000000000000000000000000000000000000000000000008152600401808060200182810382526021815260200180620032ab6021913960400191505060405180910390fd5b60008090505b8282905081101562000bea57600260009054906101000a900473ffffffffffffffffffffffffffffffffffffffff1673ffffffffffffffffffffffffffffffffffffffff166308a978e684848481811062000b3957fe5b9050602002013573ffffffffffffffffffffffffffffffffffffffff1660016040518363ffffffff1660e01b8152600401808373ffffffffffffffffffffffffffffffffffffffff1673ffffffffffffffffffffffffffffffffffffffff1681526020018260ff16815260200192505050600060405180830381600087803b15801562000bc557600080fd5b505af115801562000bda573d6000803e3d6000fd5b5050505080600101905062000ae2565b505050565b60028060009054906101000a900473ffffffffffffffffffffffffffffffffffffffff1673ffffffffffffffffffffffffffffffffffffffff16638b3f863f336040518263ffffffff1660e01b8152600401808273ffffffffffffffffffffffffffffffffffffffff1673ffffffffffffffffffffffffffffffffffffffff16815260200191505060206040518083038186803b15801562000c9057600080fd5b505afa15801562000ca5573d6000803e3d6000fd5b505050506040513d602081101562000cbc57600080fd5b810190808051906020019092919050505060ff161462000d28576040517f08c379a0000000000000000000000000000000000000000000000000000000008152600401808060200182810382526021815260200180620032ab6021913960400191505060405180910390fd5b60008090505b8282905081101562000e3657600260009054906101000a900473ffffffffffffffffffffffffffffffffffffffff1673ffffffffffffffffffffffffffffffffffffffff166308a978e684848481811062000d8557fe5b9050602002013573ffffffffffffffffffffffffffffffffffffffff1660026040518363ffffffff1660e01b8152600401808373ffffffffffffffffffffffffffffffffffffffff1673ffffffffffffffffffffffffffffffffffffffff1681526020018260ff16815260200192505050600060405180830381600087803b15801562000e1157600080fd5b505af115801562000e26573d6000803e3d6000fd5b5050505080600101905062000d2e565b505050565b600060028060009054906101000a900473ffffffffffffffffffffffffffffffffffffffff1673ffffffffffffffffffffffffffffffffffffffff16638b3f863f336040518263ffffffff1660e01b8152600401808273ffffffffffffffffffffffffffffffffffffffff1673ffffffffffffffffffffffffffffffffffffffff16815260200191505060206040518083038186803b15801562000ede57600080fd5b505afa15801562000ef3573d6000803e3d6000fd5b505050506040513d602081101562000f0a57600080fd5b810190808051906020019092919050505060ff161462000f76576040517f08c379a0000000000000000000000000000000000000000000000000000000008152600401808060200182810382526021815260200180620032ab6021913960400191505060405180910390fd5b600073ffffffffffffffffffffffffffffffffffffffff16600160008c815260200190815260200160002060009054906101000a900473ffffffffffffffffffffffffffffffffffffffff1673ffffffffffffffffffffffffffffffffffffffff161462001030576040517f08c379a0000000000000000000000000000000000000000000000000000000008152600401808060200182810382526030815260200180620032cc6030913960400191505060405180910390fd5b60008a8a8a8a8a8a600260009054906101000a900473ffffffffffffffffffffffffffffffffffffffff168b8b8b6040516200106c906200122f565b808b81526020018a815260200180602001806020018773ffffffffffffffffffffffffffffffffffffffff1673ffffffffffffffffffffffffffffffffffffffff1681526020018060200185815260200184810384528c8c82818152602001925080828437600081840152601f19601f82011690508083019250505084810383528a8a82818152602001925080828437600081840152601f19601f8201169050808301925050508481038252878782818152602001925080828437600081840152601f19601f8201169050808301925050509d5050505050505050505050505050604051809103906000f0801580156200116a573d6000803e3d6000fd5b50905080600160008d815260200190815260200160002060006101000a81548173ffffffffffffffffffffffffffffffffffffffff021916908373ffffffffffffffffffffffffffffffffffffffff16021790555060008b9080600181540180825580915050906001820390600052602060002001600090919290919091505550600160008c815260200190815260200160002060009054906101000a900473ffffffffffffffffffffffffffffffffffffffff169150509998505050505050505050565b61206d806200123e8339019056fe60806040523480156200001157600080fd5b506040516200206d3803806200206d833981018060405262000037919081019062000220565b8660008190555085420160018190555082600a60006101000a81548173ffffffffffffffffffffffffffffffffffffffff021916908373ffffffffffffffffffffffffffffffffffffffff1602179055508460039080519060200190620000a0929190620000e7565b508360049080519060200190620000b9929190620000e7565b508160059080519060200190620000d2929190620000e7565b5080600681905550505050505050506200041b565b828054600181600116156101000203166002900490600052602060002090601f016020900481019282601f106200012a57805160ff19168380011785556200015b565b828001600101855582156200015b579182015b828111156200015a5782518255916020019190600101906200013d565b5b5090506200016a91906200016e565b5090565b6200019391905b808211156200018f57600081600090555060010162000175565b5090565b90565b600081519050620001a781620003e7565b92915050565b600082601f830112620001bf57600080fd5b8151620001d6620001d08262000346565b62000318565b91508082526020830160208301858383011115620001f357600080fd5b62000200838284620003b1565b50505092915050565b6000815190506200021a8162000401565b92915050565b600080600080600080600060e0888a0312156200023c57600080fd5b60006200024c8a828b0162000209565b97505060206200025f8a828b0162000209565b965050604088015167ffffffffffffffff8111156200027d57600080fd5b6200028b8a828b01620001ad565b955050606088015167ffffffffffffffff811115620002a957600080fd5b620002b78a828b01620001ad565b9450506080620002ca8a828b0162000196565b93505060a088015167ffffffffffffffff811115620002e857600080fd5b620002f68a828b01620001ad565b92505060c0620003098a828b0162000209565b91505092959891949750929550565b6000604051905081810181811067ffffffffffffffff821117156200033c57600080fd5b8060405250919050565b600067ffffffffffffffff8211156200035e57600080fd5b601f19601f8301169050602081019050919050565b6000620003808262000387565b9050919050565b600073ffffffffffffffffffffffffffffffffffffffff82169050919050565b6000819050919050565b60005b83811015620003d1578082015181840152602081019050620003b4565b83811115620003e1576000848401525b50505050565b620003f28162000373565b8114620003fe57600080fd5b50565b6200040c81620003a7565b81146200041857600080fd5b50565b611c42806200042b6000396000f3fe608060405234801561001057600080fd5b50600436106100b45760003560e01c806388770cb01161007157806388770cb01461016c5780638d0f6da3146101885780638e7ea5b2146101a6578063a1642edd146101c4578063c8feb1fd146101e8578063ef8a923514610219576100b4565b80631300a6d1146100b9578063175b2304146100d757806320c1614b146100f357806322f3e2d4146101125780633197cbb614610130578063788077a71461014e575b600080fd5b6100c1610237565b6040516100ce9190611962565b60405180910390f35b6100f160048036036100ec919081019061137c565b610256565b005b6100fb610494565b6040516101099291906117d8565b60405180910390f35b61011a6104c6565b6040516101279190611a68565b60405180910390f35b610138610507565b6040516101459190611962565b60405180910390f35b61015661050d565b6040516101639190611823565b60405180910390f35b6101866004803603610181919081019061137c565b610714565b005b6101906108a5565b60405161019d9190611801565b60405180910390f35b6101ae610964565b6040516101bb9190611845565b60405180910390f35b6101cc610d1e565b6040516101df97969594939291906119dd565b60405180910390f35b61020260048036036101fd919081019061137c565b610f2a565b6040516102109291906117d8565b60405180910390f35b61022161118e565b60405161022e9190611860565b60405180910390f35b6000600154421061024b5760009050610253565b426001540390505b90565b6001600a60009054906101000a900473ffffffffffffffffffffffffffffffffffffffff1673ffffffffffffffffffffffffffffffffffffffff16638b3f863f336040518263ffffffff1660e01b81526004016102b391906117bd565b60206040518083038186803b1580156102cb57600080fd5b505afa1580156102df573d6000803e3d6000fd5b505050506040513d601f19601f8201168201806040525061030391908101906113a5565b60ff1614610346576040517f08c379a000000000000000000000000000000000000000000000000000000000815260040161033d90611902565b60405180910390fd5b600154421061035457600080fd5b60008111610397576040517f08c379a000000000000000000000000000000000000000000000000000000000815260040161038e906118c2565b60405180910390fd5b61039f6112fb565b60405180604001604052803373ffffffffffffffffffffffffffffffffffffffff1681526020018381525090506009819080600181540180825580915050906001820390600052602060002090600202016000909192909190915060008201518160000160006101000a81548173ffffffffffffffffffffffffffffffffffffffff021916908373ffffffffffffffffffffffffffffffffffffffff160217905550602082015181600101555050507f1c1dfacb3cb3f98ee9fad04ea98429a33ecddc9c3aff1e91e165762b70d24f5660005460098054905033604051610488939291906119a6565b60405180910390a15050565b60078060000160009054906101000a900473ffffffffffffffffffffffffffffffffffffffff16908060010154905082565b6000600360048111156104d557fe5b600260009054906101000a900460ff1660048111156104f057fe5b10156104ff5760019050610504565b600090505b90565b60015481565b60606001600a60009054906101000a900473ffffffffffffffffffffffffffffffffffffffff1673ffffffffffffffffffffffffffffffffffffffff16638b3f863f336040518263ffffffff1660e01b815260040161056c91906117bd565b60206040518083038186803b15801561058457600080fd5b505afa158015610598573d6000803e3d6000fd5b505050506040513d601f19601f820116820180604052506105bc91908101906113a5565b60ff16146105ff576040517f08c379a00000000000000000000000000000000000000000000000000000000081526004016105f690611902565b60405180910390fd5b60606009805490506040519080825280602002602001820160405280156106355781602001602082028038833980820191505090505b509050600080905060008090505b60098054905081101561070b573373ffffffffffffffffffffffffffffffffffffffff166009828154811061067457fe5b906000526020600020906002020160000160009054906101000a900473ffffffffffffffffffffffffffffffffffffffff1673ffffffffffffffffffffffffffffffffffffffff16141561070057600981815481106106cf57fe5b9060005260206000209060020201600101548383806001019450815181106106f357fe5b6020026020010181815250505b806001019050610643565b50819250505090565b6002600a60009054906101000a900473ffffffffffffffffffffffffffffffffffffffff1673ffffffffffffffffffffffffffffffffffffffff16638b3f863f336040518263ffffffff1660e01b815260040161077191906117bd565b60206040518083038186803b15801561078957600080fd5b505afa15801561079d573d6000803e3d6000fd5b505050506040513d601f19601f820116820180604052506107c191908101906113a5565b60ff1614610804576040517f08c379a00000000000000000000000000000000000000000000000000000000081526004016107fb906118a2565b60405180910390fd5b600154421061081257600080fd5b60008111610855576040517f08c379a000000000000000000000000000000000000000000000000000000000815260040161084c90611922565b60405180910390fd5b806001600082825401925050819055507fcfcf9a368ef78c7fde4a63e45a09a0a7ec12f68a0eaf3dfa33378c0f2e77859d60005460015460405161089a92919061197d565b60405180910390a150565b60606009805480602002602001604051908101604052809291908181526020016000905b8282101561095b57838290600052602060002090600202016040518060400160405290816000820160009054906101000a900473ffffffffffffffffffffffffffffffffffffffff1673ffffffffffffffffffffffffffffffffffffffff1673ffffffffffffffffffffffffffffffffffffffff168152602001600182015481525050815260200190600101906108c9565b50505050905090565b60006002600a60009054906101000a900473ffffffffffffffffffffffffffffffffffffffff1673ffffffffffffffffffffffffffffffffffffffff16638b3f863f336040518263ffffffff1660e01b81526004016109c391906117bd565b60206040518083038186803b1580156109db57600080fd5b505afa1580156109ef573d6000803e3d6000fd5b505050506040513d601f19601f82011682018060405250610a1391908101906113a5565b60ff1614610a56576040517f08c379a0000000000000000000000000000000000000000000000000000000008152600401610a4d906118a2565b60405180910390fd5b6001544211610a6457600080fd5b60006004811115610a7157fe5b600260009054906101000a900460ff166004811115610a8c57fe5b14610acc576040517f08c379a0000000000000000000000000000000000000000000000000000000008152600401610ac390611882565b60405180910390fd5b60006009805490501415610b07576003600260006101000a81548160ff02191690836004811115610af957fe5b021790555060009050610d1b565b6009600081548110610b1557fe5b906000526020600020906002020160076000820160009054906101000a900473ffffffffffffffffffffffffffffffffffffffff168160000160006101000a81548173ffffffffffffffffffffffffffffffffffffffff021916908373ffffffffffffffffffffffffffffffffffffffff160217905550600182015481600101559050506000600190505b600980549050811015610c755760098181548110610bba57fe5b9060005260206000209060020201600101546007600101541115610c6a5760098181548110610be557fe5b906000526020600020906002020160076000820160009054906101000a900473ffffffffffffffffffffffffffffffffffffffff168160000160006101000a81548173ffffffffffffffffffffffffffffffffffffffff021916908373ffffffffffffffffffffffffffffffffffffffff160217905550600182015481600101559050505b806001019050610ba0565b506001600260006101000a81548160ff02191690836004811115610c9557fe5b0217905550600760000160009054906101000a900473ffffffffffffffffffffffffffffffffffffffff1673ffffffffffffffffffffffffffffffffffffffff167f1c2ae1f7e99dbbbfe25aac964f3889ea68259d88b74709f53037a6fb930bb02a600054600760010154604051610d0e92919061197d565b60405180910390a2600190505b90565b6000806060806060806000805460015460036004610d3a61118e565b6005600654848054600181600116156101000203166002900480601f016020809104026020016040519081016040528092919081815260200182805460018160011615610100020316600290048015610dd45780601f10610da957610100808354040283529160200191610dd4565b820191906000526020600020905b815481529060010190602001808311610db757829003601f168201915b50505050509450838054600181600116156101000203166002900480601f016020809104026020016040519081016040528092919081815260200182805460018160011615610100020316600290048015610e705780601f10610e4557610100808354040283529160200191610e70565b820191906000526020600020905b815481529060010190602001808311610e5357829003601f168201915b50505050509350818054600181600116156101000203166002900480601f016020809104026020016040519081016040528092919081815260200182805460018160011615610100020316600290048015610f0c5780601f10610ee157610100808354040283529160200191610f0c565b820191906000526020600020905b815481529060010190602001808311610eef57829003601f168201915b50505050509150965096509650965096509650965090919293949596565b60008060018310158015610f4357506009805490508311155b610f82576040517f08c379a0000000000000000000000000000000000000000000000000000000008152600401610f7990611942565b60405180910390fd5b6002600a60009054906101000a900473ffffffffffffffffffffffffffffffffffffffff1673ffffffffffffffffffffffffffffffffffffffff16638b3f863f336040518263ffffffff1660e01b8152600401610fdf91906117bd565b60206040518083038186803b158015610ff757600080fd5b505afa15801561100b573d6000803e3d6000fd5b505050506040513d601f19601f8201168201806040525061102f91908101906113a5565b60ff16146110e7573373ffffffffffffffffffffffffffffffffffffffff166009600185038154811061105e57fe5b906000526020600020906002020160000160009054906101000a900473ffffffffffffffffffffffffffffffffffffffff1673ffffffffffffffffffffffffffffffffffffffff16146110e6576040517f08c379a00000000000000000000000000000000000000000000000000000000081526004016110dd906118e2565b60405180910390fd5b5b6110ef6112fb565b600960018503815481106110ff57fe5b90600052602060002090600202016040518060400160405290816000820160009054906101000a900473ffffffffffffffffffffffffffffffffffffffff1673ffffffffffffffffffffffffffffffffffffffff1673ffffffffffffffffffffffffffffffffffffffff1681526020016001820154815250509050806000015181602001519250925050915091565b606061119861132b565b6040518060a001604052806040518060400160405280600481526020017f4f70656e0000000000000000000000000000000000000000000000000000000081525081526020016040518060400160405280600881526020017f5368697070696e6700000000000000000000000000000000000000000000000081525081526020016040518060400160405280600781526020017f5061796d656e740000000000000000000000000000000000000000000000000081525081526020016040518060400160405280600681526020017f436c6f736564000000000000000000000000000000000000000000000000000081525081526020016040518060400160405280600681526020017f43616e63656c0000000000000000000000000000000000000000000000000000815250815250905080600260009054906101000a900460ff1660048111156112e657fe5b600581106112f057fe5b602002015191505090565b6040518060400160405280600073ffffffffffffffffffffffffffffffffffffffff168152602001600081525090565b6040518060a001604052806005905b606081526020019060019003908161133a5790505090565b60008135905061136181611bda565b92915050565b60008151905061137681611bf1565b92915050565b60006020828403121561138e57600080fd5b600061139c84828501611352565b91505092915050565b6000602082840312156113b757600080fd5b60006113c584828501611367565b91505092915050565b60006113da8383611761565b60408301905092915050565b60006113f28383611790565b60208301905092915050565b61140781611b60565b82525050565b61141681611b0b565b82525050565b61142581611b0b565b82525050565b600061143682611a9d565b6114408185611ad8565b935061144b83611a83565b8060005b8381101561147c57815161146388826113ce565b975061146e83611abe565b92505060018101905061144f565b5085935050505092915050565b600061149482611aa8565b61149e8185611ae9565b93506114a983611a90565b8060005b838110156114da5781516114c188826113e6565b97506114cc83611acb565b9250506001810190506114ad565b5085935050505092915050565b6114f081611b1d565b82525050565b600061150182611ab3565b61150b8185611afa565b935061151b818560208601611b96565b61152481611bc9565b840191505092915050565b600061153c601783611afa565b91507f57696e6e657220616c72656164792073656c65637465640000000000000000006000830152602082019050919050565b600061157c602183611afa565b91507f4f6e6c792041646d696e2063616e2063616c6c20746869732066756e6374696f60008301527f6e000000000000000000000000000000000000000000000000000000000000006020830152604082019050919050565b60006115e2601c83611afa565b91507f50726963652063616e6e6f74206265206e6f6e2d706f736974697665000000006000830152602082019050919050565b6000611622600b83611afa565b91507f4e6f7420416c6c6f7765640000000000000000000000000000000000000000006000830152602082019050919050565b6000611662602283611afa565b91507f4f6e6c79206269646465722063616e2063616c6c20746869732066756e63746960008301527f6f6e0000000000000000000000000000000000000000000000000000000000006020830152604082019050919050565b60006116c8603083611afa565b91507f656e6454696d652063616e6e6f7420626520657874656e646564206279206e6f60008301527f6e2d706f7369746976652076616c7565000000000000000000000000000000006020830152604082019050919050565b600061172e601283611afa565b91507f496e76616c696420426964204e756d62657200000000000000000000000000006000830152602082019050919050565b604082016000820151611777600085018261140d565b50602082015161178a6020850182611790565b50505050565b61179981611b49565b82525050565b6117a881611b49565b82525050565b6117b781611b53565b82525050565b60006020820190506117d260008301846113fe565b92915050565b60006040820190506117ed600083018561141c565b6117fa602083018461179f565b9392505050565b6000602082019050818103600083015261181b818461142b565b905092915050565b6000602082019050818103600083015261183d8184611489565b905092915050565b600060208201905061185a60008301846114e7565b92915050565b6000602082019050818103600083015261187a81846114f6565b905092915050565b6000602082019050818103600083015261189b8161152f565b9050919050565b600060208201905081810360008301526118bb8161156f565b9050919050565b600060208201905081810360008301526118db816115d5565b9050919050565b600060208201905081810360008301526118fb81611615565b9050919050565b6000602082019050818103600083015261191b81611655565b9050919050565b6000602082019050818103600083015261193b816116bb565b9050919050565b6000602082019050818103600083015261195b81611721565b9050919050565b6000602082019050611977600083018461179f565b92915050565b6000604082019050611992600083018561179f565b61199f602083018461179f565b9392505050565b60006060820190506119bb600083018661179f565b6119c8602083018561179f565b6119d560408301846113fe565b949350505050565b600060e0820190506119f2600083018a61179f565b6119ff602083018961179f565b8181036040830152611a1181886114f6565b90508181036060830152611a2581876114f6565b90508181036080830152611a3981866114f6565b905081810360a0830152611a4d81856114f6565b9050611a5c60c083018461179f565b98975050505050505050565b6000602082019050611a7d60008301846117ae565b92915050565b6000602082019050919050565b6000602082019050919050565b600081519050919050565b600081519050919050565b600081519050919050565b6000602082019050919050565b6000602082019050919050565b600082825260208201905092915050565b600082825260208201905092915050565b600082825260208201905092915050565b6000611b1682611b29565b9050919050565b60008115159050919050565b600073ffffffffffffffffffffffffffffffffffffffff82169050919050565b6000819050919050565b600060ff82169050919050565b6000611b6b82611b72565b9050919050565b6000611b7d82611b84565b9050919050565b6000611b8f82611b29565b9050919050565b60005b83811015611bb4578082015181840152602081019050611b99565b83811115611bc3576000848401525b50505050565b6000601f19601f8301169050919050565b611be381611b49565b8114611bee57600080fd5b50565b611bfa81611b53565b8114611c0557600080fd5b5056fea265627a7a72305820ac57d09c4d1b7a2af52648c24df46269ac06a1d2505ef65cdd1a161d3dd32ac86c6578706572696d656e74616cf500374f6e6c792041646d696e2063616e2063616c6c20746869732066756e6374696f6e412054656e64657220616c72656164792065786973747320776974682074686520676976656e2074656e646572204944a165627a7a72305820a3ebc0720049460d10c61a475d2d26347a48013ff780ce66273f9d90edf42f420029608060405234801561001057600080fd5b506040516020806103228339810180604052602081101561003057600080fd5b810190808051906020019092919050505060026000808373ffffffffffffffffffffffffffffffffffffffff1673ffffffffffffffffffffffffffffffffffffffff16815260200190815260200160002060006101000a81548160ff021916908360ff16021790555060026000803373ffffffffffffffffffffffffffffffffffffffff1673ffffffffffffffffffffffffffffffffffffffff16815260200190815260200160002060006101000a81548160ff021916908360ff16021790555050610221806101016000396000f3fe608060405234801561001057600080fd5b50600436106100365760003560e01c806308a978e61461003b5780638b3f863f1461008c575b600080fd5b61008a6004803603604081101561005157600080fd5b81019080803573ffffffffffffffffffffffffffffffffffffffff169060200190929190803560ff1690602001909291905050506100ea565b005b6100ce600480360360208110156100a257600080fd5b81019080803573ffffffffffffffffffffffffffffffffffffffff1690602001909291905050506101a0565b604051808260ff1660ff16815260200191505060405180910390f35b60026000803373ffffffffffffffffffffffffffffffffffffffff1673ffffffffffffffffffffffffffffffffffffffff16815260200190815260200160002060009054906101000a900460ff1660ff161461014557600080fd5b806000808473ffffffffffffffffffffffffffffffffffffffff1673ffffffffffffffffffffffffffffffffffffffff16815260200190815260200160002060006101000a81548160ff021916908360ff1602179055505050565b60008060008373ffffffffffffffffffffffffffffffffffffffff1673ffffffffffffffffffffffffffffffffffffffff16815260200190815260200160002060009054906101000a900460ff16905091905056fea165627a7a723058209ebf6f8ce13559532971d1699dc31e9d07b6b2c17b7d5db0170282b54cb074f30029",
  "source": "pragma solidity >=0.4.0 <0.6.0;\r\nimport \"./User.sol\";\r\nimport \"./Tender.sol\";\r\n\r\ncontract MainContract {\r\n\r\n\tuint[] tenderID;\t// Stores the unique tender ID deployed\r\n\tmapping(uint => address) tenders;\t// tenderID => tenderContractAddress\r\n\tUser database;\r\n\r\n\tconstructor() public {\r\n\t\tdatabase = new User(msg.sender);\r\n\t}\r\n\r\n\tmodifier onlyAdmin() {\r\n\t\trequire(database.getUserType(msg.sender) == 2, \"Only Admin can call this function\");\r\n\t\t_;\r\n\t}\r\n\r\n\t/// Gives Bidder privileges to the given addresses\r\n\tfunction approveBidder(address[] calldata _newBidder) external onlyAdmin {\r\n\t\tfor(uint i = 0; i < _newBidder.length ; ++i)\r\n\t\t{\r\n\t\t\tdatabase.setUserType(_newBidder[i], 1);\t\t// Check if implementing function their better?\r\n\t\t}\r\n\t}\r\n\r\n\t/// Gives Admin privileges to the given addresses\r\n\tfunction approveAdmin(address[] calldata _newAdmin) external onlyAdmin {\r\n\t\tfor(uint i = 0; i < _newAdmin.length ; ++i)\r\n\t\t{\r\n\t\t\tdatabase.setUserType(_newAdmin[i], 2);\r\n\t\t}\r\n\t}\r\n\r\n\t/// Returns the user level\r\n\tfunction getUserType(address _node) external view returns(uint8) {\r\n\t\treturn database.getUserType(_node);\r\n\t}\r\n\r\n\t/// @dev Creates a new tender contract and returns its address\r\n\tfunction createTender(uint _tenderID, uint _bidTime,string calldata _title,string calldata _desc, string calldata _item, uint _qty) external onlyAdmin returns(address) {\r\n\t\trequire(tenders[_tenderID ] == address(0), \"A Tender already exists with the given tender ID\");\r\n        Tender tender = new Tender(_tenderID, _bidTime, _title, _desc, address(database), _item, _qty);\r\n\t\ttenders[_tenderID] = address(tender);\r\n\t\ttenderID.push(_tenderID);\r\n\t\treturn tenders[_tenderID];\r\n\t}\r\n\r\n\t/// returns the contract address of the tender with the given tenderID\r\n\tfunction getTenderByID(uint _tenderID) external view returns(address) {\r\n\t\trequire(tenders[_tenderID] != address(0), \"No Tender Found!\");\r\n\t\treturn tenders[_tenderID];\r\n\t}\r\n\r\n\t/// returns an array of all the tender contract's address deployed\r\n\tfunction getAllTenders() external view returns(address[] memory) {\r\n\t    address[] memory tender = new address[](tenderID.length);\r\n\t\tfor(uint i = 0; i < tenderID.length; ++i)\r\n\t\t{\r\n\t\t\ttender[i] = tenders[tenderID[i]];\r\n\t\t}\r\n\t\treturn tender;\r\n\t}\r\n\r\n\t/// @param\r\n\t/// _mode := 0 To return Active Tenders\r\n\t/// _mode := 1 To return Closed Tenders\r\n\t/// @dev Can be made more flexible\r\n\tfunction getTendersByStatus(uint _mode) external view returns(address[] memory) {\r\n\t\taddress[] memory tender = new address[](tenderID.length);\r\n\t\tuint idx = 0;\r\n\t\tfor(uint i = 0; i < tenderID.length; ++i)\r\n\t\t{\r\n\t\t\tif ( (Tender(tenders[tenderID[i]]).isActive()^_mode) == 1)\r\n\t\t\t{\r\n\t\t\t\ttender[idx++] = tenders[tenderID[i]];\r\n\t\t\t}\r\n\t\t}\r\n\t\treturn tender;\r\n\t}\r\n}",
  "sourcePath": "/home/guest/gitProjects/supplyChain/contracts/MainContract.sol",
  "compiler": {
    "name": "solc",
    "version": "0.5.8+commit.23d335f2.Emscripten.clang"
  },
  "schemaVersion": "3.0.16",
  "updatedAt": "2020-01-17T14:49:25.241Z",
  "devdoc": {
    "methods": {
      "createTender(uint256,uint256,string,string,string,uint256)": {
        "details": "Creates a new tender contract and returns its address"
      },
      "getTendersByStatus(uint256)": {
        "details": "Can be made more flexible"
      }
    }
  },
  "userdoc": {
    "methods": {
      "approveAdmin(address[])": {
        "notice": "Gives Admin privileges to the given addresses"
      },
      "approveBidder(address[])": {
        "notice": "Gives Bidder privileges to the given addresses"
      },
      "getAllTenders()": {
        "notice": "returns an array of all the tender contract's address deployed"
      },
      "getTenderByID(uint256)": {
        "notice": "returns the contract address of the tender with the given tenderID"
      },
      "getUserType(address)": {
        "notice": "Returns the user level"
      }
    }
  }
}