{
  "contractName": "Tender",
  "abi": [
    {
      "constant": true,
      "inputs": [],
      "name": "bestBid",
      "outputs": [
        {
          "name": "bidder",
          "type": "address"
        },
        {
          "name": "price",
          "type": "uint256"
        }
      ],
      "payable": false,
      "stateMutability": "view",
      "type": "function"
    },
    {
      "constant": true,
      "inputs": [],
      "name": "endTime",
      "outputs": [
        {
          "name": "",
          "type": "uint256"
        }
      ],
      "payable": false,
      "stateMutability": "view",
      "type": "function"
    },
    {
      "inputs": [
        {
          "name": "_tenderID",
          "type": "uint256"
        },
        {
          "name": "_bidTime",
          "type": "uint256"
        },
        {
          "name": "_title",
          "type": "string"
        },
        {
          "name": "_desc",
          "type": "string"
        },
        {
          "name": "_database",
          "type": "address"
        },
        {
          "name": "_item",
          "type": "string"
        },
        {
          "name": "_qty",
          "type": "uint256"
        }
      ],
      "payable": false,
      "stateMutability": "nonpayable",
      "type": "constructor"
    },
    {
      "anonymous": false,
      "inputs": [
        {
          "indexed": false,
          "name": "_tenderID",
          "type": "uint256"
        },
        {
          "indexed": false,
          "name": "bidNumber",
          "type": "uint256"
        },
        {
          "indexed": false,
          "name": "bidder",
          "type": "address"
        }
      ],
      "name": "bidAlert",
      "type": "event"
    },
    {
      "anonymous": false,
      "inputs": [
        {
          "indexed": false,
          "name": "_tenderID",
          "type": "uint256"
        },
        {
          "indexed": false,
          "name": "_newEndTime",
          "type": "uint256"
        }
      ],
      "name": "newEndTime",
      "type": "event"
    },
    {
      "anonymous": false,
      "inputs": [
        {
          "indexed": false,
          "name": "_tenderID",
          "type": "uint256"
        },
        {
          "indexed": true,
          "name": "winner",
          "type": "address"
        },
        {
          "indexed": false,
          "name": "_lowestPrice",
          "type": "uint256"
        }
      ],
      "name": "Winner",
      "type": "event"
    },
    {
      "constant": true,
      "inputs": [],
      "name": "isActive",
      "outputs": [
        {
          "name": "",
          "type": "uint8"
        }
      ],
      "payable": false,
      "stateMutability": "view",
      "type": "function"
    },
    {
      "constant": false,
      "inputs": [
        {
          "name": "_price",
          "type": "uint256"
        }
      ],
      "name": "makeBid",
      "outputs": [],
      "payable": false,
      "stateMutability": "nonpayable",
      "type": "function"
    },
    {
      "constant": true,
      "inputs": [
        {
          "name": "_bidNumber",
          "type": "uint256"
        }
      ],
      "name": "getBidByID",
      "outputs": [
        {
          "name": "",
          "type": "address"
        },
        {
          "name": "",
          "type": "uint256"
        }
      ],
      "payable": false,
      "stateMutability": "view",
      "type": "function"
    },
    {
      "constant": true,
      "inputs": [],
      "name": "currentStatus",
      "outputs": [
        {
          "name": "",
          "type": "string"
        }
      ],
      "payable": false,
      "stateMutability": "view",
      "type": "function"
    },
    {
      "constant": true,
      "inputs": [],
      "name": "displayTenderDetails",
      "outputs": [
        {
          "name": "",
          "type": "uint256"
        },
        {
          "name": "",
          "type": "uint256"
        },
        {
          "name": "",
          "type": "string"
        },
        {
          "name": "",
          "type": "string"
        },
        {
          "name": "",
          "type": "string"
        },
        {
          "name": "",
          "type": "string"
        },
        {
          "name": "",
          "type": "uint256"
        }
      ],
      "payable": false,
      "stateMutability": "view",
      "type": "function"
    },
    {
      "constant": false,
      "inputs": [
        {
          "name": "_val",
          "type": "uint256"
        }
      ],
      "name": "extendEndTime",
      "outputs": [],
      "payable": false,
      "stateMutability": "nonpayable",
      "type": "function"
    },
    {
      "constant": false,
      "inputs": [],
      "name": "getWinner",
      "outputs": [
        {
          "name": "",
          "type": "bool"
        }
      ],
      "payable": false,
      "stateMutability": "nonpayable",
      "type": "function"
    },
    {
      "constant": true,
      "inputs": [],
      "name": "getAllBids",
      "outputs": [
        {
          "components": [
            {
              "name": "bidder",
              "type": "address"
            },
            {
              "name": "price",
              "type": "uint256"
            }
          ],
          "name": "",
          "type": "tuple[]"
        }
      ],
      "payable": false,
      "stateMutability": "view",
      "type": "function"
    },
    {
      "constant": true,
      "inputs": [],
      "name": "getMyBids",
      "outputs": [
        {
          "name": "",
          "type": "uint256[]"
        }
      ],
      "payable": false,
      "stateMutability": "view",
      "type": "function"
    },
    {
      "constant": true,
      "inputs": [],
      "name": "timeLeft",
      "outputs": [
        {
          "name": "",
          "type": "uint256"
        }
      ],
      "payable": false,
      "stateMutability": "view",
      "type": "function"
    }
  ],
  "bytecode": "0x60806040523480156200001157600080fd5b506040516200206d3803806200206d833981018060405262000037919081019062000220565b8660008190555085420160018190555082600a60006101000a81548173ffffffffffffffffffffffffffffffffffffffff021916908373ffffffffffffffffffffffffffffffffffffffff1602179055508460039080519060200190620000a0929190620000e7565b508360049080519060200190620000b9929190620000e7565b508160059080519060200190620000d2929190620000e7565b5080600681905550505050505050506200041b565b828054600181600116156101000203166002900490600052602060002090601f016020900481019282601f106200012a57805160ff19168380011785556200015b565b828001600101855582156200015b579182015b828111156200015a5782518255916020019190600101906200013d565b5b5090506200016a91906200016e565b5090565b6200019391905b808211156200018f57600081600090555060010162000175565b5090565b90565b600081519050620001a781620003e7565b92915050565b600082601f830112620001bf57600080fd5b8151620001d6620001d08262000346565b62000318565b91508082526020830160208301858383011115620001f357600080fd5b62000200838284620003b1565b50505092915050565b6000815190506200021a8162000401565b92915050565b600080600080600080600060e0888a0312156200023c57600080fd5b60006200024c8a828b0162000209565b97505060206200025f8a828b0162000209565b965050604088015167ffffffffffffffff8111156200027d57600080fd5b6200028b8a828b01620001ad565b955050606088015167ffffffffffffffff811115620002a957600080fd5b620002b78a828b01620001ad565b9450506080620002ca8a828b0162000196565b93505060a088015167ffffffffffffffff811115620002e857600080fd5b620002f68a828b01620001ad565b92505060c0620003098a828b0162000209565b91505092959891949750929550565b6000604051905081810181811067ffffffffffffffff821117156200033c57600080fd5b8060405250919050565b600067ffffffffffffffff8211156200035e57600080fd5b601f19601f8301169050602081019050919050565b6000620003808262000387565b9050919050565b600073ffffffffffffffffffffffffffffffffffffffff82169050919050565b6000819050919050565b60005b83811015620003d1578082015181840152602081019050620003b4565b83811115620003e1576000848401525b50505050565b620003f28162000373565b8114620003fe57600080fd5b50565b6200040c81620003a7565b81146200041857600080fd5b50565b611c42806200042b6000396000f3fe608060405234801561001057600080fd5b50600436106100b45760003560e01c806388770cb01161007157806388770cb01461016c5780638d0f6da3146101885780638e7ea5b2146101a6578063a1642edd146101c4578063c8feb1fd146101e8578063ef8a923514610219576100b4565b80631300a6d1146100b9578063175b2304146100d757806320c1614b146100f357806322f3e2d4146101125780633197cbb614610130578063788077a71461014e575b600080fd5b6100c1610237565b6040516100ce9190611962565b60405180910390f35b6100f160048036036100ec919081019061137c565b610256565b005b6100fb610494565b6040516101099291906117d8565b60405180910390f35b61011a6104c6565b6040516101279190611a68565b60405180910390f35b610138610507565b6040516101459190611962565b60405180910390f35b61015661050d565b6040516101639190611823565b60405180910390f35b6101866004803603610181919081019061137c565b610714565b005b6101906108a5565b60405161019d9190611801565b60405180910390f35b6101ae610964565b6040516101bb9190611845565b60405180910390f35b6101cc610d1e565b6040516101df97969594939291906119dd565b60405180910390f35b61020260048036036101fd919081019061137c565b610f2a565b6040516102109291906117d8565b60405180910390f35b61022161118e565b60405161022e9190611860565b60405180910390f35b6000600154421061024b5760009050610253565b426001540390505b90565b6001600a60009054906101000a900473ffffffffffffffffffffffffffffffffffffffff1673ffffffffffffffffffffffffffffffffffffffff16638b3f863f336040518263ffffffff1660e01b81526004016102b391906117bd565b60206040518083038186803b1580156102cb57600080fd5b505afa1580156102df573d6000803e3d6000fd5b505050506040513d601f19601f8201168201806040525061030391908101906113a5565b60ff1614610346576040517f08c379a000000000000000000000000000000000000000000000000000000000815260040161033d90611902565b60405180910390fd5b600154421061035457600080fd5b60008111610397576040517f08c379a000000000000000000000000000000000000000000000000000000000815260040161038e906118c2565b60405180910390fd5b61039f6112fb565b60405180604001604052803373ffffffffffffffffffffffffffffffffffffffff1681526020018381525090506009819080600181540180825580915050906001820390600052602060002090600202016000909192909190915060008201518160000160006101000a81548173ffffffffffffffffffffffffffffffffffffffff021916908373ffffffffffffffffffffffffffffffffffffffff160217905550602082015181600101555050507f1c1dfacb3cb3f98ee9fad04ea98429a33ecddc9c3aff1e91e165762b70d24f5660005460098054905033604051610488939291906119a6565b60405180910390a15050565b60078060000160009054906101000a900473ffffffffffffffffffffffffffffffffffffffff16908060010154905082565b6000600360048111156104d557fe5b600260009054906101000a900460ff1660048111156104f057fe5b10156104ff5760019050610504565b600090505b90565b60015481565b60606001600a60009054906101000a900473ffffffffffffffffffffffffffffffffffffffff1673ffffffffffffffffffffffffffffffffffffffff16638b3f863f336040518263ffffffff1660e01b815260040161056c91906117bd565b60206040518083038186803b15801561058457600080fd5b505afa158015610598573d6000803e3d6000fd5b505050506040513d601f19601f820116820180604052506105bc91908101906113a5565b60ff16146105ff576040517f08c379a00000000000000000000000000000000000000000000000000000000081526004016105f690611902565b60405180910390fd5b60606009805490506040519080825280602002602001820160405280156106355781602001602082028038833980820191505090505b509050600080905060008090505b60098054905081101561070b573373ffffffffffffffffffffffffffffffffffffffff166009828154811061067457fe5b906000526020600020906002020160000160009054906101000a900473ffffffffffffffffffffffffffffffffffffffff1673ffffffffffffffffffffffffffffffffffffffff16141561070057600981815481106106cf57fe5b9060005260206000209060020201600101548383806001019450815181106106f357fe5b6020026020010181815250505b806001019050610643565b50819250505090565b6002600a60009054906101000a900473ffffffffffffffffffffffffffffffffffffffff1673ffffffffffffffffffffffffffffffffffffffff16638b3f863f336040518263ffffffff1660e01b815260040161077191906117bd565b60206040518083038186803b15801561078957600080fd5b505afa15801561079d573d6000803e3d6000fd5b505050506040513d601f19601f820116820180604052506107c191908101906113a5565b60ff1614610804576040517f08c379a00000000000000000000000000000000000000000000000000000000081526004016107fb906118a2565b60405180910390fd5b600154421061081257600080fd5b60008111610855576040517f08c379a000000000000000000000000000000000000000000000000000000000815260040161084c90611922565b60405180910390fd5b806001600082825401925050819055507fcfcf9a368ef78c7fde4a63e45a09a0a7ec12f68a0eaf3dfa33378c0f2e77859d60005460015460405161089a92919061197d565b60405180910390a150565b60606009805480602002602001604051908101604052809291908181526020016000905b8282101561095b57838290600052602060002090600202016040518060400160405290816000820160009054906101000a900473ffffffffffffffffffffffffffffffffffffffff1673ffffffffffffffffffffffffffffffffffffffff1673ffffffffffffffffffffffffffffffffffffffff168152602001600182015481525050815260200190600101906108c9565b50505050905090565b60006002600a60009054906101000a900473ffffffffffffffffffffffffffffffffffffffff1673ffffffffffffffffffffffffffffffffffffffff16638b3f863f336040518263ffffffff1660e01b81526004016109c391906117bd565b60206040518083038186803b1580156109db57600080fd5b505afa1580156109ef573d6000803e3d6000fd5b505050506040513d601f19601f82011682018060405250610a1391908101906113a5565b60ff1614610a56576040517f08c379a0000000000000000000000000000000000000000000000000000000008152600401610a4d906118a2565b60405180910390fd5b6001544211610a6457600080fd5b60006004811115610a7157fe5b600260009054906101000a900460ff166004811115610a8c57fe5b14610acc576040517f08c379a0000000000000000000000000000000000000000000000000000000008152600401610ac390611882565b60405180910390fd5b60006009805490501415610b07576003600260006101000a81548160ff02191690836004811115610af957fe5b021790555060009050610d1b565b6009600081548110610b1557fe5b906000526020600020906002020160076000820160009054906101000a900473ffffffffffffffffffffffffffffffffffffffff168160000160006101000a81548173ffffffffffffffffffffffffffffffffffffffff021916908373ffffffffffffffffffffffffffffffffffffffff160217905550600182015481600101559050506000600190505b600980549050811015610c755760098181548110610bba57fe5b9060005260206000209060020201600101546007600101541115610c6a5760098181548110610be557fe5b906000526020600020906002020160076000820160009054906101000a900473ffffffffffffffffffffffffffffffffffffffff168160000160006101000a81548173ffffffffffffffffffffffffffffffffffffffff021916908373ffffffffffffffffffffffffffffffffffffffff160217905550600182015481600101559050505b806001019050610ba0565b506001600260006101000a81548160ff02191690836004811115610c9557fe5b0217905550600760000160009054906101000a900473ffffffffffffffffffffffffffffffffffffffff1673ffffffffffffffffffffffffffffffffffffffff167f1c2ae1f7e99dbbbfe25aac964f3889ea68259d88b74709f53037a6fb930bb02a600054600760010154604051610d0e92919061197d565b60405180910390a2600190505b90565b6000806060806060806000805460015460036004610d3a61118e565b6005600654848054600181600116156101000203166002900480601f016020809104026020016040519081016040528092919081815260200182805460018160011615610100020316600290048015610dd45780601f10610da957610100808354040283529160200191610dd4565b820191906000526020600020905b815481529060010190602001808311610db757829003601f168201915b50505050509450838054600181600116156101000203166002900480601f016020809104026020016040519081016040528092919081815260200182805460018160011615610100020316600290048015610e705780601f10610e4557610100808354040283529160200191610e70565b820191906000526020600020905b815481529060010190602001808311610e5357829003601f168201915b50505050509350818054600181600116156101000203166002900480601f016020809104026020016040519081016040528092919081815260200182805460018160011615610100020316600290048015610f0c5780601f10610ee157610100808354040283529160200191610f0c565b820191906000526020600020905b815481529060010190602001808311610eef57829003601f168201915b50505050509150965096509650965096509650965090919293949596565b60008060018310158015610f4357506009805490508311155b610f82576040517f08c379a0000000000000000000000000000000000000000000000000000000008152600401610f7990611942565b60405180910390fd5b6002600a60009054906101000a900473ffffffffffffffffffffffffffffffffffffffff1673ffffffffffffffffffffffffffffffffffffffff16638b3f863f336040518263ffffffff1660e01b8152600401610fdf91906117bd565b60206040518083038186803b158015610ff757600080fd5b505afa15801561100b573d6000803e3d6000fd5b505050506040513d601f19601f8201168201806040525061102f91908101906113a5565b60ff16146110e7573373ffffffffffffffffffffffffffffffffffffffff166009600185038154811061105e57fe5b906000526020600020906002020160000160009054906101000a900473ffffffffffffffffffffffffffffffffffffffff1673ffffffffffffffffffffffffffffffffffffffff16146110e6576040517f08c379a00000000000000000000000000000000000000000000000000000000081526004016110dd906118e2565b60405180910390fd5b5b6110ef6112fb565b600960018503815481106110ff57fe5b90600052602060002090600202016040518060400160405290816000820160009054906101000a900473ffffffffffffffffffffffffffffffffffffffff1673ffffffffffffffffffffffffffffffffffffffff1673ffffffffffffffffffffffffffffffffffffffff1681526020016001820154815250509050806000015181602001519250925050915091565b606061119861132b565b6040518060a001604052806040518060400160405280600481526020017f4f70656e0000000000000000000000000000000000000000000000000000000081525081526020016040518060400160405280600881526020017f5368697070696e6700000000000000000000000000000000000000000000000081525081526020016040518060400160405280600781526020017f5061796d656e740000000000000000000000000000000000000000000000000081525081526020016040518060400160405280600681526020017f436c6f736564000000000000000000000000000000000000000000000000000081525081526020016040518060400160405280600681526020017f43616e63656c0000000000000000000000000000000000000000000000000000815250815250905080600260009054906101000a900460ff1660048111156112e657fe5b600581106112f057fe5b602002015191505090565b6040518060400160405280600073ffffffffffffffffffffffffffffffffffffffff168152602001600081525090565b6040518060a001604052806005905b606081526020019060019003908161133a5790505090565b60008135905061136181611bda565b92915050565b60008151905061137681611bf1565b92915050565b60006020828403121561138e57600080fd5b600061139c84828501611352565b91505092915050565b6000602082840312156113b757600080fd5b60006113c584828501611367565b91505092915050565b60006113da8383611761565b60408301905092915050565b60006113f28383611790565b60208301905092915050565b61140781611b60565b82525050565b61141681611b0b565b82525050565b61142581611b0b565b82525050565b600061143682611a9d565b6114408185611ad8565b935061144b83611a83565b8060005b8381101561147c57815161146388826113ce565b975061146e83611abe565b92505060018101905061144f565b5085935050505092915050565b600061149482611aa8565b61149e8185611ae9565b93506114a983611a90565b8060005b838110156114da5781516114c188826113e6565b97506114cc83611acb565b9250506001810190506114ad565b5085935050505092915050565b6114f081611b1d565b82525050565b600061150182611ab3565b61150b8185611afa565b935061151b818560208601611b96565b61152481611bc9565b840191505092915050565b600061153c601783611afa565b91507f57696e6e657220616c72656164792073656c65637465640000000000000000006000830152602082019050919050565b600061157c602183611afa565b91507f4f6e6c792041646d696e2063616e2063616c6c20746869732066756e6374696f60008301527f6e000000000000000000000000000000000000000000000000000000000000006020830152604082019050919050565b60006115e2601c83611afa565b91507f50726963652063616e6e6f74206265206e6f6e2d706f736974697665000000006000830152602082019050919050565b6000611622600b83611afa565b91507f4e6f7420416c6c6f7765640000000000000000000000000000000000000000006000830152602082019050919050565b6000611662602283611afa565b91507f4f6e6c79206269646465722063616e2063616c6c20746869732066756e63746960008301527f6f6e0000000000000000000000000000000000000000000000000000000000006020830152604082019050919050565b60006116c8603083611afa565b91507f656e6454696d652063616e6e6f7420626520657874656e646564206279206e6f60008301527f6e2d706f7369746976652076616c7565000000000000000000000000000000006020830152604082019050919050565b600061172e601283611afa565b91507f496e76616c696420426964204e756d62657200000000000000000000000000006000830152602082019050919050565b604082016000820151611777600085018261140d565b50602082015161178a6020850182611790565b50505050565b61179981611b49565b82525050565b6117a881611b49565b82525050565b6117b781611b53565b82525050565b60006020820190506117d260008301846113fe565b92915050565b60006040820190506117ed600083018561141c565b6117fa602083018461179f565b9392505050565b6000602082019050818103600083015261181b818461142b565b905092915050565b6000602082019050818103600083015261183d8184611489565b905092915050565b600060208201905061185a60008301846114e7565b92915050565b6000602082019050818103600083015261187a81846114f6565b905092915050565b6000602082019050818103600083015261189b8161152f565b9050919050565b600060208201905081810360008301526118bb8161156f565b9050919050565b600060208201905081810360008301526118db816115d5565b9050919050565b600060208201905081810360008301526118fb81611615565b9050919050565b6000602082019050818103600083015261191b81611655565b9050919050565b6000602082019050818103600083015261193b816116bb565b9050919050565b6000602082019050818103600083015261195b81611721565b9050919050565b6000602082019050611977600083018461179f565b92915050565b6000604082019050611992600083018561179f565b61199f602083018461179f565b9392505050565b60006060820190506119bb600083018661179f565b6119c8602083018561179f565b6119d560408301846113fe565b949350505050565b600060e0820190506119f2600083018a61179f565b6119ff602083018961179f565b8181036040830152611a1181886114f6565b90508181036060830152611a2581876114f6565b90508181036080830152611a3981866114f6565b905081810360a0830152611a4d81856114f6565b9050611a5c60c083018461179f565b98975050505050505050565b6000602082019050611a7d60008301846117ae565b92915050565b6000602082019050919050565b6000602082019050919050565b600081519050919050565b600081519050919050565b600081519050919050565b6000602082019050919050565b6000602082019050919050565b600082825260208201905092915050565b600082825260208201905092915050565b600082825260208201905092915050565b6000611b1682611b29565b9050919050565b60008115159050919050565b600073ffffffffffffffffffffffffffffffffffffffff82169050919050565b6000819050919050565b600060ff82169050919050565b6000611b6b82611b72565b9050919050565b6000611b7d82611b84565b9050919050565b6000611b8f82611b29565b9050919050565b60005b83811015611bb4578082015181840152602081019050611b99565b83811115611bc3576000848401525b50505050565b6000601f19601f8301169050919050565b611be381611b49565b8114611bee57600080fd5b50565b611bfa81611b53565b8114611c0557600080fd5b5056fea265627a7a72305820ac57d09c4d1b7a2af52648c24df46269ac06a1d2505ef65cdd1a161d3dd32ac86c6578706572696d656e74616cf50037",
  "source": "pragma solidity >=0.4.0 <0.6.0;\npragma experimental ABIEncoderV2;\nimport \"./User.sol\";\n\ncontract Tender {\n\tuint tenderID;\n\tuint public endTime;\n\tStatus status;\n\tstring title;\n\tstring desc;\n\n\tstring item;\n\tuint qty;\n\n\tBid public bestBid;\n\tBid[] bids;\n\tUser database;\n\n\tenum Status {open,shipping,payment,closed,cancel}\n\n\tstruct Bid {\n\t\taddress bidder;\n\t\tuint price;\n\t}\n\n\tevent bidAlert(uint _tenderID, uint bidNumber, address bidder);\n\tevent newEndTime(uint _tenderID, uint _newEndTime);\n\tevent Winner(uint _tenderID, address indexed winner, uint _lowestPrice);\n\n\tconstructor(uint _tenderID, uint _bidTime,string memory _title,string memory _desc, address _database, string memory _item, uint _qty) public {\n\t\ttenderID = _tenderID;\n\t\tendTime = now + _bidTime;\n\t\tdatabase = User(_database);\n\t\ttitle = _title;\n\t\tdesc = _desc;\n\t\titem = _item;\n\t\tqty = _qty;\n\t}\n\n\tmodifier onlyAdmin() {\n\t\trequire(database.getUserType(msg.sender) == 2, \"Only Admin can call this function\");\n\t\t_;\n\t}\n\n\tmodifier onlyBidder() {\n\t\trequire(database.getUserType(msg.sender) == 1, \"Only bidder can call this function\");\n\t\t_;\n\t}\n\n\tmodifier beforeEndTime() {\t\t\t// Adding Text leads to deployment error\n\t\trequire(now < endTime);\n\t\t_;\n\t}\n\n\tmodifier afterEndTime() {\t\t\t// Adding Text leads to deployment error\n\t\trequire(now > endTime);\n\t\t_;\n\t}\n\t\n\tfunction isActive() external view returns(uint8) {\n\t\tif (status < Status.closed) return 1;\n\t\treturn 0;\n\t}\n\n\t/// Simple one product model\n\t/// @param _price -> overall bid\n\tfunction makeBid(uint _price) external onlyBidder beforeEndTime {\n        require(_price > 0,\"Price cannot be non-positive\");\n        Bid memory myBid = Bid(msg.sender, _price);\n        bids.push(myBid);\n\t\temit bidAlert(tenderID, bids.length, msg.sender);\n\t}\n\n\tfunction getBidByID(uint _bidNumber) external view returns(address,uint) {\n\t\trequire(_bidNumber >=1 && _bidNumber <= bids.length,\"Invalid Bid Number\");\n\t\tif (database.getUserType(msg.sender) != 2)\n\t\t{\n\t\t\trequire(bids[_bidNumber-1].bidder == msg.sender,\"Not Allowed\");\n\t\t}\n\t\tBid memory bid = bids[_bidNumber-1];\n\t\treturn(bid.bidder,bid.price);\n\t}\n\n\t// Helper Function\n\tfunction currentStatus() public view returns(string memory) {\n\t\tstring[5] memory statusType = [\"Open\",\"Shipping\",\"Payment\",\"Closed\",\"Cancel\"];\n\t\treturn statusType[uint(status)];\n\t}\n\n\t/// @dev Maybe separate req[] to another function\n\tfunction displayTenderDetails() external view returns(uint,uint,string memory,string memory,string memory,string memory, uint) {\n\t\treturn (tenderID, endTime, title, desc, currentStatus(), item, qty);\n\t}\n\n\t/// Extends the endTime by _val seconds\n\tfunction extendEndTime(uint _val) external onlyAdmin beforeEndTime {\n\t\trequire(_val > 0, \"endTime cannot be extended by non-positive value\");\n\t\tendTime += _val;\n\t\temit newEndTime(tenderID,endTime);\n\t}\n\n\t/// Selects the first bid with smallest bid amount\n\tfunction getWinner() external onlyAdmin afterEndTime returns(bool) {\n\t\trequire(status == Status.open, \"Winner already selected\");\n\n\t\tif (bids.length == 0)\n\t\t{\n\t\t\tstatus = Status.closed;\n\t\t\treturn false;\n\t\t}\n\n\t\tbestBid = bids[0];\n\t\tfor(uint i = 1; i < bids.length; ++i)\n\t\t{\n\t\t\tif(bestBid.price > bids[i].price)\n\t\t\t{\n\t\t\t\tbestBid = bids[i];\n\t\t\t}\n\t\t}\n\n\t\tstatus = Status.shipping;\n\t\temit Winner(tenderID, bestBid.bidder, bestBid.price);\n\t\treturn true;\n\t}\n\n\tfunction getAllBids() external view returns(Bid[] memory)\n\t{\n\t\t// Bid[] memory tmpBid = new Bid[](bids.length);\n\t\t// for(uint i = 0; i < bids.length; ++i)\n\t\t// {\n\t\t// \ttmpBid[i] = bids[i];\n\t\t// }\n\t\t// return tmpBid;\n\t\treturn bids;\n\t}\n\n\tfunction getMyBids() external view onlyBidder returns(uint[] memory){\n\t\tuint[] memory myBids = new uint[](bids.length);\n\t\tuint idx = 0;\n\t\tfor(uint i = 0; i < bids.length; ++i)\n\t\t{\n\t\t\tif(bids[i].bidder == msg.sender)\n\t\t\t{\n\t\t\t\tmyBids[idx++] = bids[i].price;\n\t\t\t}\n\t\t}\n\t\treturn myBids;\n\t}\n\n\tfunction timeLeft() external view returns(uint) {\n\t\tif (now >= endTime) return 0;\n\t\treturn endTime - now;\n\t}\n}",
  "sourcePath": "/home/guest/gitProjects/supplyChain/contracts/Tender.sol",
  "compiler": {
    "name": "solc",
    "version": "0.5.8+commit.23d335f2.Emscripten.clang"
  },
  "schemaVersion": "3.0.16",
  "updatedAt": "2020-01-17T14:49:25.248Z",
  "devdoc": {
    "methods": {
      "displayTenderDetails()": {
        "details": "Maybe separate req[] to another function"
      },
      "makeBid(uint256)": {
        "params": {
          "_price": "-> overall bid"
        }
      }
    }
  },
  "userdoc": {
    "methods": {
      "extendEndTime(uint256)": {
        "notice": "Extends the endTime by _val seconds"
      },
      "getWinner()": {
        "notice": "Selects the first bid with smallest bid amount"
      },
      "makeBid(uint256)": {
        "notice": "Simple one product model"
      }
    }
  }
}