{
  "contractName": "User",
  "abi": [
    {
      "inputs": [
        {
          "name": "_creator",
          "type": "address"
        }
      ],
      "payable": false,
      "stateMutability": "nonpayable",
      "type": "constructor"
    },
    {
      "constant": true,
      "inputs": [
        {
          "name": "_node",
          "type": "address"
        }
      ],
      "name": "getUserType",
      "outputs": [
        {
          "name": "",
          "type": "uint8"
        }
      ],
      "payable": false,
      "stateMutability": "view",
      "type": "function"
    },
    {
      "constant": false,
      "inputs": [
        {
          "name": "_node",
          "type": "address"
        },
        {
          "name": "_val",
          "type": "uint8"
        }
      ],
      "name": "setUserType",
      "outputs": [],
      "payable": false,
      "stateMutability": "nonpayable",
      "type": "function"
    }
  ],
  "bytecode": "0x608060405234801561001057600080fd5b506040516020806103228339810180604052602081101561003057600080fd5b810190808051906020019092919050505060026000808373ffffffffffffffffffffffffffffffffffffffff1673ffffffffffffffffffffffffffffffffffffffff16815260200190815260200160002060006101000a81548160ff021916908360ff16021790555060026000803373ffffffffffffffffffffffffffffffffffffffff1673ffffffffffffffffffffffffffffffffffffffff16815260200190815260200160002060006101000a81548160ff021916908360ff16021790555050610221806101016000396000f3fe608060405234801561001057600080fd5b50600436106100365760003560e01c806308a978e61461003b5780638b3f863f1461008c575b600080fd5b61008a6004803603604081101561005157600080fd5b81019080803573ffffffffffffffffffffffffffffffffffffffff169060200190929190803560ff1690602001909291905050506100ea565b005b6100ce600480360360208110156100a257600080fd5b81019080803573ffffffffffffffffffffffffffffffffffffffff1690602001909291905050506101a0565b604051808260ff1660ff16815260200191505060405180910390f35b60026000803373ffffffffffffffffffffffffffffffffffffffff1673ffffffffffffffffffffffffffffffffffffffff16815260200190815260200160002060009054906101000a900460ff1660ff161461014557600080fd5b806000808473ffffffffffffffffffffffffffffffffffffffff1673ffffffffffffffffffffffffffffffffffffffff16815260200190815260200160002060006101000a81548160ff021916908360ff1602179055505050565b60008060008373ffffffffffffffffffffffffffffffffffffffff1673ffffffffffffffffffffffffffffffffffffffff16815260200190815260200160002060009054906101000a900460ff16905091905056fea165627a7a723058209ebf6f8ce13559532971d1699dc31e9d07b6b2c17b7d5db0170282b54cb074f30029",
  "source": "pragma solidity >=0.4.0 <0.6.0;\n\ncontract User{\n\t// 0 -> Normarl User\n\t// 1 -> Bidder\n\t// 2 -> Admin\n\tmapping(address => uint8) userType; // Stores the privilege of users\n\n\tconstructor(address _creator) public {\n\t\tuserType[_creator] = 2;\n\t\tuserType[msg.sender] = 2; // Giving MainContract Admin Right too!\n\t}\n\n\tmodifier onlyAdmin(){\t\t// What if contract makes a call?\n\t\trequire(userType[msg.sender] == 2);\n\t\t_;\n\t}\n\n\tfunction getUserType(address _node) external view returns(uint8) {\n\t\treturn userType[_node];\n\t}\n\n\tfunction setUserType(address _node,uint8 _val) external onlyAdmin {\n\t\tuserType[_node] = _val;\n\t}\n}",
  "sourcePath": "/home/guest/gitProjects/supplyChain/contracts/User.sol",
  "compiler": {
    "name": "solc",
    "version": "0.5.8+commit.23d335f2.Emscripten.clang"
  },
  "schemaVersion": "3.0.16",
  "updatedAt": "2020-01-17T12:57:36.019Z",
  "devdoc": {
    "methods": {}
  },
  "userdoc": {
    "methods": {}
  }
}